:020000040001F9
:10400000C03F0020BD420100CF420100D14201006B
:1040100000000000000000000000000000000000A0
:10402000000000000000000000000000D34201007A
:104030000000000000000000D5420100D74201004E
:10404000D9420100D942010023560100D9420100A2
:10405000D942010000000000858C01007B45010071
:10406000D9420100D9420100D9420100D9420100E0
:10407000D9420100D9420100D9420100D9420100D0
:10408000D9420100398F0100D9420100D942010013
:10409000C58F0100B9890100618A0100D942010080
:1040A000D9420100D94201000000000000000000D8
:1040B0000000000000000000000000000000000000
:1040C00000F002F800F05AF80CA030C808382418A4
:1040D0002D18A246671EAB4654465D46AC4201D140
:1040E00000F04CF87E460F3E0FCCB6460126334218
:1040F00000D0FB1AA246AB46334318472C7F000082
:104100004C7F0000103A02D378C878C1FAD8520721
:1041100001D330C830C101D504680C60704700007D
:104120000023002400250026103A01D378C1FBD8D3
:10413000520700D330C100D50B60704710B5662917
:1041400002D107F04FF910BD642902D105F0DCFB64
:1041500010BD732902D106F096FC10BD002010BDE1
:104160001FB5C046C04606F0BBFC0400002000217D
:1041700007F0CAF8E0601FBD10B510BD07F00EF8DB
:104180001146FFF7EDFF00F0BDF807F026F803B485
:10419000FFF7F2FF03BC05F0FBFA0000401E00BF72
:1041A00000BF00BF00BF00BF00BF00BF00BF00BF17
:1041B00000BF00BF00BFF1D170470000401E00BF2C
:1041C00000BF00BF00BF00BF00BF00BF00BF00BFF7
:1041D00000BF00BF00BFF1D170470000401E00BF0C
:1041E00000BF00BF00BF00BF00BF00BF00BF00BFD7
:1041F00000BF00BF00BFF1D170470000401E00BFEC
:1042000000BF00BF00BF00BF00BF00BF00BF00BFB6
:1042100000BF00BF00BFF1D17047000070B5054678
:104220000C46164602E00FCC0FC5103E102EFAD2F7
:10423000082E02D303CC03C5083E042E07D301CCBD
:1042400001C5361F03E021782970641C6D1C761EA1
:10425000F9D270BD14491348086070471348018CA7
:10426000C9B201291DD1818C09071AD1018D090616
:104270000A0F03D1828D1206120F0CD0090F0129EB
:1042800003D1828D1206120F05D0032909D1808D2A
:104290000006000F05D1074905484860C8130649C4
:1042A000886170470024F40000200020C00F00F057
:1042B000DFFF07C000050040006C00400A480268AC
:1042C0000F210A4302600948804709480047FEE77A
:1042D000FEE7FEE7FEE7FEE7FEE7000005480649C9
:1042E000064A074B70470000240500405D4201006C
:1042F000C1400100C02F0020C03F0020C037002077
:10430000C037002001F075F900F055FC00F059FCB1
:1043100001F045F901F051F904F05EFC02F094FD62
:1043200033A005F0B9FA35A005F0B6FA36A005F0CD
:10433000B3FA39A005F0B0FA3BA005F0ADFA3EA003
:1043400005F0AAFA01F086F801F06AF800F098FC8E
:104350003CA005F0A1FA40A005F09EFA43A005F0AC
:104360009BFA052000F05EFA00F089FE00F033FFB2
:1043700000F017FF01F0ABF841A005F08DFA45A061
:1043800005F08AFA47A005F087FA4BA005F084FAF9
:1043900000F076FA4FA005F07FFA01F0F8FF52A086
:1043A00005F07AFA54A005F077FA01F07CF902F0F2
:1043B0008BFC54A005F070FA57A005F06DFA02F0DE
:1043C0004DFD59A005F068FA5AA005F065FA0120E4
:1043D00002F04EFB7D20000102F05CFD002002F0A7
:1043E00047FB01F03DF901F056F901F0F6F8F8E766
:1043F000756172745F696E69740D0A006C6564732F
:104400005F696E69740D0A0074696D6572735F6926
:104410006E69740D0A0000006770696F74655F69EA
:104420006E69740D0A000000627574746F6E735FBC
:10443000696E69740D0A00007764745F696E69744F
:104440000D0A0000626F6E645F6D616E6167657278
:104450005F696E69740D0A00626C655F73746163F5
:104460006B5F696E69740D0A000000006761705F20
:10447000706172616D735F696E69740D0A0000008E
:104480006164766572746973696E675F696E697479
:104490000D0A000073657276696365735F696E6902
:1044A000740D0A00636F6E6E5F706172616D735F91
:1044B000696E69740D0A0000726164696F5F6E6FE6
:1044C00074696669636174696F6E5F696E69740DA2
:1044D0000A0000006164766572746973696E675FD3
:1044E00073746172740D0A004854553231445F4947
:1044F0006E69740D0A0000004F4C45445F496E69B7
:10450000740D0A00727463206D795F74696D657251
:104510005F696E69740D0A004175746F5F54696D4F
:10452000655F5365740D0A007764745F737461721C
:10453000740D0A00456E746572206D61696E206CA1
:104540006F6F700D0A00000010B513460A46014651
:10455000EFA005F0A1F910BD10B5FA4C02460B46CC
:104560002146EBA005F098F910BD10B50146802258
:10457000F5A3E7A005F090F910BDF8B5F64C20685A
:10458000F64E0125002869D03078002866D12060D9
:10459000F3488068F349C0B24D604B21090148439C
:1045A000FF2105F01EFB41004018FF300F30EE499F
:1045B00080B2884201D3642136E0EC4A904209D9A6
:1045C000081A3A214843642105F019FB6421081AAE
:1045D000C1B229E0E649884209D9101A1821484396
:1045E000A02105F00CFB2A21081AC1B21CE0E14A07
:1045F00090420AD9081A0C214843FF212D3105F0B9
:10460000FEFA1221081AC1B20EE0DB4988420AD92B
:10461000101A06214843FF21553105F0F0FA062112
:10462000081AC1B200E00021D4480F460170D4A09E
:1046300005F032F93946D74801F064FB00280DD067
:1046400008280BD0D449884208D0D449884205D0E4
:104650000146AA22BCA3AEA005F01EF920680028DE
:1046600018D03078002815D000202060BC48806821
:10467000BC49C0B24D604B2109014843FF2105F000
:10468000B0FA4100401880B2322803D9C4490888E2
:10469000401C0880C3480570F8BD70B5C2480125AC
:1046A00045608121AE48C9004160AB4E00243460B2
:1046B0000560072027DF002805D00146D422BBA3D0
:1046C00093A005F0E9F80321072028DF002805D092
:1046D0000146D722B5A38EA005F0DEF8072023DF20
:1046E000002805D00146DA22B0A389A005F0D4F84D
:1046F00034609C48056099480470AA48047070BDF5
:1047000070B5A948012444609548AC494160924E77
:10471000002535600460072027DF002805D001460A
:10472000F622A2A37AA005F0B7F80321072028DF1C
:10473000002805D00146F9229CA375A005F0ACF82D
:10474000072023DF002805D00146FC2297A370A094
:1047500005F0A2F8356083480460804804709148F1
:10476000057070BD9648C179002916D110B5012198
:104770000170944B80229A600170C171904AC90304
:10478000C06A04F0C0FC002806D00146FF2219329E
:1047900086A35FA005F080F810BD704710B5884C67
:1047A000E06A04F01AFD002806D00146FF222532F7
:1047B0007EA357A005F070F80020E07181498020A9
:1047C000C86010BD7E488179002915D110B501213E
:1047D00041707C4BCA049A6081717B4AC903806A2C
:1047E00004F091FC002806D00146FF223F326FA35F
:1047F00047A005F051F810BD704710B5704CA06A85
:1048000004F0EBFC002806D00146FF224B3267A3E0
:104810003FA005F041F80020A07101206949C004C3
:10482000C86010BD01B594B000216846674B0170A7
:104830005A6818689B68109061481293119201623F
:104840003C2101A805F0CBF9022001900121684626
:104850004172818114A80490684603210590018467
:1048600010A80990002101A802F07CFF002805D0C3
:104870000146574A34A326A005F00EF815B000BD36
:10488000F0B58BB000200090019002900390694633
:10489000049008704A4C0872206A032528261E27B7
:1048A000002806D0012806D0022827D003282DD1C1
:1048B00090E00120206206A803F01BFB002806D030
:1048C0000146FF226D3220A311A004F0E5FF6846E7
:1048D000007F002803D108A80079002809D002250C
:1048E0006846057206A803900420FFF79BFF256227
:1048F00000E0256268460682478276E00520FFF7E1
:1049000091FF68460682478225626EE06DE00000F6
:104910006170705F6572726F725F68616E646C6502
:10492000723A25642C6C696E655F6E756D25642C1A
:10493000705F66696C655F6E616D653A25730D0A1F
:1049400000000000EFBEADDE626C655F6170705FFD
:104950006D61696E2E630000007100400920002027
:104960000075004000700040B80B0000540B0000C0
:10497000B40A000088090000340800001820002054
:104980006D6261747465725F6C6576656C3A2564FE
:104990000D0A000048270020033000000134000009
:1049A0000C2000200A20002000730040626C655F2C
:1049B0006170705F6D61696E2E6300000808000011
:1049C000242000200005005025200020F4B3010021
:1049D000C70200000520FFF725FF1921C90168461D
:1049E0000182B421418204202062684663DF0028EE
:1049F00006D00146FF229732FD4BFE4804F04CFFE3
:104A0000E079002814D101202070FB4A80219160B8
:104A10002070E071C103F94AE06A04F074FB0028D9
:104A200006D00146FF221932F54BF24804F034FF5C
:104A30000BB0F0BDF3480078002800D02DE6704799
:104A400070B5EE4D0446A879002822D0002C06D17E
:104A5000FF220021BD32E64BE64804F01DFFE64888
:104A600041680122D204514041602078224600284A
:104A700010D0002010700121C903A86A04F043FB84
:104A8000002806D00146FF22D532D94BD94804F080
:104A900003FF70BD0120EDE770B5D84D0446E879FD
:104AA000002820D0002C06D1FF220021EB32D04B71
:104AB000D04804F0F1FED048416880225140416066
:104AC0002078224600280FD0002010700121C90351
:104AD000E86A04F018FB002805D00146CA4AC44B16
:104AE000C44804F0D9FE70BD0120EEE7F0B5C74C14
:104AF00083B0A068401CA06002F043F9C44D288830
:104B0000142804D30121882000F071FE03E0002165
:104B1000882000F06CFEBF4829880288521852088D
:104B20000280BDA004F0B8FE0020288001F0B9FB8F
:104B3000BF4F002838702CD0A268616820680090B0
:104B400002920191BBA063692269E16804F0A4FEAE
:104B5000BD4C606805F0B0FC05460E46206805F0C7
:104B6000ABFC02460B46B9A00196009504F094FEFA
:104B700000203870BA48007800280AD080202168C8
:104B800000F012FE012002F085F98120616800F03A
:104B90000BFE03B0F0BD10B59A480078002801D094
:104BA000FFF7AEFD10BD10B5002001F061FFAD496B
:104BB0000020087010BDAC490320C861AB49C86033
:104BC000704708B50020AA4B0B220A21009004F080
:104BD000FDF9002805D00146A64A854B854804F01A
:104BE0005BFEA54A0121A54804F065FA002805D01E
:104BF0000146A34A7E4B7F4804F04EFEA14A0021A5
:104C0000A14804F058FA002805D001469F4A784B85
:104C1000784804F041FE9E4A00219E4804F04BFA79
:104C2000002805D001469C4A714B724804F034FEBE
:104C30009A4A01219A4804F03EFA002805D001461C
:104C4000984A6B4B6B4804F027FE974A012197481E
:104C500004F031FA002805D00146954A644B6548B6
:104C600004F01AFE934A0021934804F024FA002825
:104C700005D00146914A5E4B5E4804F00DFE08BD2A
:104C800000B585B01120694608710B228CA101A8DE
:104C90006CDF002805D001468C4A554B554804F07E
:104CA000FBFD0920800168DF002805D00146884A05
:104CB0004F4B504804F0F0FD0021FF20913002914D
:104CC0006A4603911081430053819181D08102A8EB
:104CD0006ADF002806D0014629221201444B4548CC
:104CE00004F0DAFD002067DF002805D00146794A8C
:104CF0003F4B404804F0D0FD05B000BD08B5002092
:104D0000694600900870401C0007000F2030487072
:104D100000208870704801F0DFF9002806D00146B5
:104D2000B7229200364B334804F0B6FD08BD70B58B
:104D3000324B00280AD00124E4042F4D01280AD068
:104D4000022802D1FFF759FDAC6070BD00205871F8
:104D5000FFF753FD70BD98790028FBD101205870F2
:104D6000AC609871C1035D4A986A04F0CCF90028E0
:104D7000F0D00146FF223F32214B1E4804F08CFD4B
:104D800070BD0868002801D10879D0E7704708B5E0
:104D9000534800906946534801F008F8002805D0B0
:104DA0000146514A164B134804F076FD08BD0868C9
:104DB000002804D1114A012050710879B7E77047E3
:104DC00010B584B0494800904948002401900294ED
:104DD00068460472601C0107090F68462031417261
:104DE000601C0107090F684620318172694681E025
:104DF000484901001049010000050050242000200E
:104E0000AC4901000A200020020200002C210020F1
:104E10000C2000200E200020736F756E645F667298
:104E2000657175656E63793A25640D0A00000000AE
:104E30000820002025642D25642D25642C25643A46
:104E400025643A25640D0A001C20002074656D70ED
:104E50003A252E31662C72683A252E31660D0A00ED
:104E600004200020052000200007005040070050CB
:104E7000482100204F020000354A01004820002050
:104E800055020000414A01004C2000205A02000057
:104E9000994A0100502000205F020000ED4A010005
:104EA0003820002065020000974B010040200020C0
:104EB0006A020000A74B01003C2000206F020000A6
:104EC0004368696C64205761746368008302000062
:104ED00086020000930200001827002025200020F1
:104EE000834D010024270020EB020000AF4D01009C
:104EF0006B450100F84801F096F8002805D00146FE
:104F0000F64AF74BF74804F0C7FCF748447104B081
:104F100010BD10B5F4480968406A00290CD0012979
:104F200009D104F05AF9002805D00146EF4AF04BA8
:104F3000EC4804F0B1FC10BD0F210022890404F0FC
:104F4000E2F80028F7D00146EA4AE94BE54804F0C8
:104F5000A3FC10BD00B585B0002001900290039025
:104F60000490E548009001216846017164210173B5
:104F70000120014668461031417301200146684610
:104F800010318173002001466846C173012001463B
:104F90006846103101746946D84800F00EFE0028BA
:104FA00005D00146D64ACE4BCE4804F075FC05B07C
:104FB00000BD10B5086800280DD001280BD00228CC
:104FC00009D103F014FE002805D00146CD4AC84B94
:104FD000C44804F061FC10BD00B5C34983B0002093
:104FE0000872C9480090C94801906946C84800F055
:104FF0003FFF002806D0014633221201B84BB948C2
:1050000004F04AFC03B000BD00B583B0084600F0D0
:10501000FCFBC048836842680168029301920091DA
:1050200043690269C168BCA004F036FC03B000BD4E
:1050300010B5C649C4480860C54800F0B5FC002852
:1050400005D00146C34AA64BA64804F025FC10BD76
:1050500010B50068002805D00021BF4AA44BA14824
:1050600004F01AFCA0483B21408966DF002805D0E7
:105070000146BA4A9E4B9B4804F00EFC10BD70B529
:1050800086B00024684600940470601C0107090F74
:1050900068462031417084706946B14801F01CF8BF
:1050A000002806D00146B72292008D4B8D4804F0AF
:1050B000F3FBAC4800906946AB4800F077FE00284F
:1050C00005D00146A94A864B864804F0E5FBA8486E
:1050D0008E4D0090019502946846047201200146AD
:1050E00068462031417201200146684620318172B4
:1050F0006946794800F097FF002805D00146774AB5
:10510000774B784804F0C8FB774E7B487471009069
:10511000019402940394012104946846017164216E
:105120000173012001466846103141730120014698
:10513000684610318173002001466846C173012022
:10514000014668461031017469466C4800F035FD2F
:10515000002805D001466A4A614B624804F09CFB76
:1051600034726948009069460195694800F080FEF4
:10517000002806D0014633221201594B594804F049
:105180008BFB724970480860714800F00DFC0028E4
:1051900005D001466F4A524B524804F07DFB06B0E1
:1051A00070BD74491E200880887801221043E122D6
:1051B0001040DF220C30104088700720C87010208B
:1051C0000871704710B50146E1229200484B4548EE
:1051D00004F062FB10BD00B587B005210020C903B3
:1051E00001910291009003900322049069460A7392
:1051F000C8810120087460480590604806906846A0
:1052000003F093F9002805D001465D4A384B354834
:1052100004F042FB07B000BD70B50446324D008873
:10522000AB890026172851D012DC564910281CD013
:10523000112835D013284AD0142830D15249E28998
:10524000C888891D904243D10022184671DF0AE0C8
:1052500019283ED0392803D052283BD055281ED1DA
:105260001321184666DF0446A8E001200870E86AAA
:1052700003F0B3FF002806D00146FF222532184B69
:10528000184804F009FB4149EE718020C860687934
:10529000002801D0FFF7B1FA2E62A088A88170BD66
:1052A0000E706879002801D1FFF7A7FA0020C043EB
:1052B000A88102F0DEFC04006CD02146344A0C4B7D
:1052C000084804F0E9FAFFF7DBFA77E07EE064E0F3
:1052D00082E067E06DE05DE034270020010300001C
:1052E000AC490100104901002420002022040000E4
:1052F000484901001C040000134F0100482700200A
:105300001B03000007040000B34F01006B450100C0
:10531000602700202C21002025642D25642D256484
:105320002C25643A25643A25642C6E75735F72658A
:1053300063656976655F646174615F68616E646C02
:1053400065720D0A000000000950010034200020A1
:10535000FC260020490300005A0300005D03000002
:1053600018270020834D010024270020EB020000B5
:10537000AF4D01005420002051500100C5510100E3
:105380009B03000004200020502600200005005050
:105390005E040000FFF774FA70BDD24A002118467F
:1053A0006FDF60E7A0790028F6D12E62FFF768FA78
:1053B00070BD002211461846A9DF04462100F7D02F
:1053C000C94ACA4BCA4804F067FA70BD3222A11D0F
:1053D000C84804F0A5FB70BD00221146184671DFD5
:1053E00041E710B5044602F063FA204603F0CFF817
:1053F0002146C14800F0C2FC2146C04800F0DDFD56
:105400002146BF4800F0AEFB2146BE4800F044FDF7
:105410002146BD4800F09CFA2046FFF7FDFE10BD76
:1054200008B500200090B94B5022B9490D2003F077
:10543000EDFA002805D00146B64AAC4BAC4804F062
:105440002BFA08BD10B50146B34AA84BA84804F092
:1054500023FA10BD30B585B06946162003F0D7FB9E
:10546000002805D00146AD4AA04BA14804F014FA2B
:10547000AB4D68692C04401C05D0206981B2686975
:1054800004F0AFFB00E060696946401E087168697E
:10549000401C05D0206981B2686904F0A2FB00E0DD
:1054A00060696946C01E4871002002909D480390C3
:1054B0000878887101A802F0BEFD002805D00146D9
:1054C000994A8A4B8A4804F0E7F905B030BD10B517
:1054D000964A0521012003F079FA002805D00146FB
:1054E000934A824B824804F0D7F910BD70B5064646
:1054F00090A004F0D1F9954C0125152E0AD0162E56
:1055000029D01E2E2AD03146914A784B784804F093
:10551000C3F970BD207A002814D00021794800F02A
:1055200020FD002813D08B498842F2D08A49884256
:10553000EFD00528EDD00146884A6C4B6C4804F04A
:10554000ABF970BD02216F4800F00BFDE9E7207A4E
:105550006840207270BDFFF750F970BD804E307802
:105560000028FAD1012001F083FA357005210022CC
:105570000904A06903F0C7FD002805D00146794A57
:105580005A4B5B4804F088F902202062FFF778F953
:1055900075487749057075480079087070BD10B579
:1055A0007449012003F0BDFB002805D00146724A72
:1055B0004E4B4F4804F070F910BD10B500236F4AF0
:1055C00003216F4803F0C5FA002805D001466D4A53
:1055D000464B474804F060F910BD3DDF002807D076
:1055E00010B50146684A414B414804F055F910BDD9
:1055F000704708B5002000901C2304221D210520BF
:1056000004F016F961490420486061490A68FF23E3
:105610001B049A4303239B05D2180A605D49086066
:1056200008BD10B504F0C8F8484C5B49A2780A28B8
:10563000885401D0142A10D35749334800F064FA33
:10564000082807D0002805D00146544A274B28488F
:1056500004F022F90020A07010BD521CA27010BDF1
:1056600070B54348414C00786168384D801C8142D8
:1056700008D13D480178002904D000210170296239
:10568000FFF7FEF8E9786068884203D001F0EAFB92
:105690002079E87070BD35482C4900680A7990423D
:1056A00000D00871704710B5284C01210022C903B1
:1056B000606903F028FD002805D00146384A0B4BED
:1056C0000B4804F0E9F800226221E06903F01BFDB9
:1056D000002805D00146334A044B054804F0DCF8A5
:1056E00010BD000054200020A9040000484901001A
:1056F00010490100502600202427002034270020D4
:105700004827002060270020FC260020E3530100EA
:1057100084260020C9040000D6040000E404000030
:105720000010001045540100EE0400009F890100A4
:10573000FB040000627574746F6E5F6576656E744D
:105740005F68616E646C65720D0A000024200020A1
:105750003A05000003300000013400001F0500007E
:10576000052000202E050000062000202C2100200E
:1057700007200020D4260020430500006606000014
:105780005C200020520500005C0500000023004062
:1057900000E400E000E100E0E826002076050000DB
:1057A000B3050000B605000010B50C4682B00146F6
:1057B0006846017002214170204604F0A7FE0246AF
:1057C000684682705A49204605F0B4FD04F09EFEFA
:1057D000C0B20A2104F005FA6846C1705521017172
:1057E00005226946534800F08FF902B010BD08B594
:1057F0006A4610700120507091705520D0700422BC
:1058000069464C4800F080F908BDF0B5017887B0D2
:105810008C4641788906890E42189278552A49D1DA
:105820004E1E002E16DD00AB0124421C0333CD07B3
:10583000E407E54203D054785C70521C5B1C557839
:10584000741007D097785D70D5789F70921C9B1C60
:10585000641EF7D1320003D48018837801A88355E1
:105860006046082828D0012824D1334D002E16DDAB
:1058700000AA01230332681ECC07DB07DC4203D0F9
:1058800053784370401C521C5478731007D096789C
:105890004470D4788670801C921C5B1EF7D1491E20
:1058A00002D401A8405C685400202873224923A038
:1058B00003F0F2FF07B0F0BD68468088234C42BA7F
:1058C0006846E260807920616846C0796061684618
:1058D000007A20606846407A60606846807AA060FE
:1058E0001025042320210020009500F001FF0095E1
:1058F000022320212820226900F0FAFE00950223CD
:1059000020214020626900F0F3FE0095022320214F
:105910005820226800F0ECFE009502232021702020
:10592000626800F0E5FE00F0CFFD07B0F0BD0000BA
:1059300000002041FC2600201C210020626F756EB3
:105940006470686F6E653A25730D0A002C21002083
:1059500000281ED000291CD00A88102A14D0112A31
:1059600014D0502A15D1CA88038A891D9A4202D1BF
:105970000B8B022B0ED083889A420AD18369002BAD
:1059800007D00A8B1A311847898801E00021C943E2
:1059900081827047CA7E8B7E11021943C907C90FE5
:1059A00000D0012181757047F0B46C4D04002DCDFD
:1059B00096B00AAE2DC67DD000297BD00020C04312
:1059C000A0820868A0610025A57521460AA852DFBB
:1059D000002870D1217810A8817401260682A21CAB
:1059E00014A93046A0DF002865D101200146684691
:1059F0001031079501770120014668461031417743
:105A0000817FF9221140891C8177019500950295CB
:105A100003950495069501781020014368460170AE
:105A200007A805902346197810A881730321818166
:105A30000120014608A81031089501700120014697
:105A400008A8103141708178F7201140891C01406D
:105A5000EF200140314308A8817013A80E9008A8D8
:105A60000F9010951195129510A806804580142767
:105A7000878058880C330EAA6946A2DF00283CD1E3
:105A80000095019502950395049505956846069540
:105A900001780C20014368460170217808A88170C4
:105AA00002216846018401200146234668461031E0
:105AB000079501E024E020E00177012001466846D7
:105AC00010314177817FF9200140F720891C014086
:105AD000EF20014031436846817708A80E9007A85F
:105AE0000F9010951195129510A80680458087801B
:105AF0005888231D0EAA6946A2DF16B0F0BC704775
:105B000016B0F0BC0E20704707B485B000280DD049
:105B1000828A134B9A420CD0827D002A09D06A46B1
:105B2000928B142A08D9072008B070470E2008B0BD
:105B30007047082008B0704700220092019202923C
:105B4000039282896B461A80039107A90291012171
:105B50009970808A6946A6DF08B0704700B40100DA
:105B6000FFFF000008B50A88102A1AD0112A1AD09F
:105B7000502A1BD1027D002A18D0CA884389891D6A
:105B80009A4213D10A8B022A10D10268002A0DD042
:105B9000CA7E8B7E11021943C907C90F07D00021A5
:105BA00006E0898801E00021C943418208BD012146
:105BB000009102686946904708BDF0B5054693B06C
:105BC000086828600020C043688208792875FF2093
:105BD000287401270E4668468773644981812A1D0F
:105BE00003A93846A0DF00287ED1287D00240028A4
:105BF0000DD0012001466846103101940171717B7E
:105C000041718179F92001406846891C81710594B0
:105C100006940794089409940A9469460B94087DA5
:105C200002210843694608752A7DEF21002A02D027
:105C30001022104300E008406A461075287D0028B5
:105C400000D001A80A90012268468272484B038165
:105C50000094B37B0370F37B43708078F923184082
:105C6000F723801C18400F46384041084900684619
:105C70008170317B017402A80C9068460E940F94D9
:105C80000D9002874487828704A81090A888AB1DD6
:105C90000CAA05A9A2DF002832D1B06800282DD0B7
:105CA000012069468872334808810094307C08706E
:105CB000002048708878F9210840F721801C0840AE
:105CC0003840400840006946887011A8B16803F068
:105CD0004FFD02A90C9169460E940F940D9108870F
:105CE0004C87888711A800E00AE010902A46E888CF
:105CF0000E320CA9A3DF002802D100E0EC8120467F
:105D000013B0F0BD33B486B004466946227C097FE7
:105D100000208A4222D00125684605822174E0884D
:105D200007AB04AA0021A4DF002817D1608A12491A
:105D3000884216D0207D002813D0002000900190CA
:105D40000290694603900D82E2880A808D708880F7
:105D500004A8029007A80390608AA6DF08B030BCB0
:105D6000704708B030BC0820704700000F180000D2
:105D7000192A000008290000FFFF00000A88502AA5
:105D800013D100B5CA88C388891D83B09A420AD14D
:105D90000A8B012A07D100220092897E6A4611717E
:105DA00002686946904703B000BD704730B40446AE
:105DB000086892B0002847D00125206068468571A8
:105DC00029498180221D01A92846A0DF002838D159
:105DD0000021049105910691079108910991684667
:105DE0000A91027C042002436846027485721F4AAD
:105DF000028100200246684600910270012002469E
:105E00006846203242708078F9221040F722801CC8
:105E10001040EF22104042085200684682700E91F6
:105E20000F91017302A80C9068460D900587418779
:105E3000858703A8234610909888A31D0CAA04A95F
:105E4000A2DF12B030BC704712B030BC07207047E0
:105E500018B401226C4622800B46C0886A46002195
:105E6000A5DF18BC7047000002180000062A0000D9
:105E70000A68002A0ED00260496841600021C943C7
:105E80004181002101814448012181704349018001
:105E90000020704707207047F8B50446088810288E
:105EA0000AD011284ED0302812D0322820D1CA88EA
:105EB0002046002A23D01CE08888608101206946A2
:105EC00088703748088060896A46012180DF09E0D0
:105ED000CA882046002A0CD10A89002A09D0608984
:105EE0000E3182DF002803D06168002900D0884786
:105EF000F8BD01210091026869469047F8BD0D89FF
:105F000000220831002DF4DD234B9C781E880A23E3
:105F100053435B181F79BC4210D15F88BE420DD13C
:105F20000A246243511889794907E2D559890181C8
:105F300000210091026869469047F8BD521C9542C5
:105F4000E5DCD6E70020C043608120890028F4D03A
:105F50000220009022686946204690470020208158
:105F6000F8BD13B4018983B0002911D04089002203
:105F700000926C460192618002212170A280012171
:105F8000E18004AB6946029387DF05B010BC70471F
:105F900005B010BC0520704780200020062A0000B4
:105FA0000218000018B401226C4622800B4640897A
:105FB0006A460021A5DF18BC704710B50B88002287
:105FC00084B0102B0ED0112B12D0172B08D1897949
:105FD000002905D1694602920A73026802A9904716
:105FE00004B010BD694602920A7302A9026817E064
:105FF0000446487B0828F3D1029201206946888034
:1060000003AB608901AA0021A5DF002805D06168E3
:106010000029E5D0884704B010BD226802A92046B7
:10602000904704B010BD70B40446086893B00D46A4
:10603000002849D020606868012660606846867143
:10604000234981802246083201A93046A0DF00287A
:1060500037D100210491059106910791089109918A
:1060600068460A91027C0A200243684602748672DE
:10607000184A028100916A7A0270AA7A4270807886
:10608000F9221040F722801C1040EF2210404208F5
:106090005200684682700C910D910E910F911091F3
:1060A0002A7A027302A80C9068460D9006874187F1
:1060B000868703A82346109018890A330CAA04A9DE
:1060C000A2DF13B070BC704713B070BC07207047DC
:1060D00003180000062A0000F0B4054692B00E46F0
:1060E000012768468771214981802A4601A93846DF
:1060F000A0DF00282CD10390049005900690079013
:1061000008906C460990217B022211432173A772EB
:1061100017492181009071782170B1786170A17860
:10612000F9221140F722891C1140EF221140B94396
:10613000A17002A90C910E900D940F902787608793
:10614000A7872B4610961888AB1C0CAA03A9A2DFC0
:1061500012B0F0BC704703B482B001216A461180CE
:10616000408803AB0021A4DF04B07047041800008E
:10617000072A0000F0B400020843BD4A00211023A2
:1061800017260127751A3C46AC40044200D0504007
:10619000491C5B1E52081B061B0EF3D1F0BCC0B29B
:1061A0007047F8B500F08FFF802000F003FFE52076
:1061B00000F000FF00F087FF812000F0FBFE00F000
:1061C000D1FE0021684600F03BFF00F0E2FE694688
:1061D0000888897840BA844600020843A44A00210E
:1061E0001023172701267D1A3446AC40044200D004
:1061F0005040491C5B1E52081B061B0EF3D10006C3
:10620000000E08D06046000900017D214843000CC3
:10621000801F04F0B7F9F8BDF8B500F054FF8020F6
:1062200000F0C8FEE32000F0C5FE00F04CFF812026
:1062300000F0C0FE00F096FE0021684600F000FF6E
:1062400000F0A7FE69460888897840BA84460002B3
:106250000843874A00211023172701267D1A344658
:10626000AC40044200D05040491C5B1E52081B0643
:106270001B0EF3D10006000E12D06046800880008D
:1062800003F0B5FF7B4A7C4B03F0B4FF0F22D243EF
:1062900004F0E4F8794A7A4B03F054FF03F098FDD8
:1062A000F8BDF0B583B0FFF7B7FF01904000000ED6
:1062B00042D000F008FF802000F07CFEE52000F0D6
:1062C00079FE00F000FF812000F074FE00F04AFE2D
:1062D0000021684600F0B4FE00F05BFE69460888C5
:1062E000897840BA844600020843614A002110239D
:1062F000172701267D1A3446AC40044200D0504096
:10630000491C5B1E52081B061B0EF3D10006000E33
:1063100008D06046000900017D214843000C801F21
:1063200004F030F94100090E06D05649019A0A607E
:106330004860012003B0F0BD002003B0F0BD08B5F7
:10634000E62269460A70487001230222802000F08C
:10635000D0FE08BD08B5E721684601700023012280
:106360006946802000F0C5FE01231A466946812057
:1063700000F0BFFE6846007808BD08B5FE206946FB
:10638000087001231A46802000F0B3FE08BDF0B566
:1063900083B000F0B8FDFE206946087001231A465C
:1063A000802000F0A6FE142000F074FDE72069466E
:1063B000087000230122802000F09BFE01231A4672
:1063C0006946812000F095FE694608780124E6229E
:1063D0000A702043487023460222802000F089FE84
:1063E000FFF71AFF01904000000E3ED000F06BFE58
:1063F000802000F0DFFDE52000F0DCFD00F063FE12
:10640000812000F0D7FD00F0ADFD0021684600F0CE
:1064100017FE00F0BEFD69460888897840BA8446B8
:1064200000020843124A0021102317277E1A25462E
:10643000B540054200D05040491C5B1E52081B0667
:106440001B0EF3D10006000E08D0604600090001C3
:106450007D214843000C801F04F094F84100090E90
:1064600003D00849019A0A60486003B0F0BD0000FB
:1064700000809800D7A3703D0AF76540CDCCCCCC06
:10648000CC6C47C01C200020F0B401246402FE4AFA
:1064900000290BD09460FF270137D7600021FD0051
:1064A0006B00D360060603D5956002E0D460F2E786
:1064B000D56093604006491C000EC9B20829F0D38C
:1064C00097609460F0BC704770B5F04E0024204691
:1064D000B030C0B20021FFF7D7FF00210846FFF718
:1064E000D3FF00211020FFF7CFFF0025E80080191F
:1064F000005D0121FFF7C8FF6D1CEDB2802DF5D3C3
:10650000641CE4B2082CE2D370BD00B500218D20DC
:10651000FFF7BAFF00211420FFF7B6FF0021AF20DC
:10652000FFF7B2FF00BD00B500218D20FFF7ACFFE3
:1065300000211020FFF7A8FF0021AE20FFF7A4FFE5
:1065400000BD70B5D14E0024E000801904F0B4FE07
:10655000641CE4B2802CF7D300242046B030C0B2D3
:106560000021FFF791FF00210846FFF78DFF002172
:106570001020FFF789FF0025E8008019005D012148
:10658000FFF782FF6D1CEDB2802DF5D3641CE4B2E1
:10659000082CE2D370BD7F2817D83F2915D810B436
:1065A000CB080724E31A2140641A0121A140B74C0B
:1065B000C0000019DBB2002AC25CC9B201D00A4394
:1065C00000E08A43C25410BC70477047F0B51746CC
:1065D0001E468C460546B8420FD86446B44508D8D6
:1065E00021462846059AFFF7D6FF641CE4B2B44260
:1065F000F6D96D1CEDB2BD42EFD9A44E0024204661
:10660000B030C0B20021FFF73FFF00210846FFF77E
:106610003BFF00211020FFF737FF0025E80080191D
:10662000005D0121FFF730FF6D1CEDB2802DF5D329
:10663000641CE4B2082CE2D3F0BDFFB50C468C46D6
:10664000203A002183B01F46D0B20091002B38D9E8
:106650000C218F4A4143891802918E49000140184C
:1066600001900C2F07D0019900980D5C0026280698
:1066700005D50C9A07E0029900980D5CF6E70C9896
:10668000002812D0002221460398FFF784FF6806F5
:10669000050E641CE4B26046201AB84207D1039884
:1066A0006446401CC0B2039005E00122EBE7761C73
:1066B000F6B2082EDBD30098401CC0B20090B8425E
:1066C000CFD307B0F0BD02460B4610B40120491EDF
:1066D000002B0BDDCB07C407E34200D01046491C5A
:1066E000491003D050435043491EFBD110BC7047A2
:1066F000FFB5002683B01D463446002B39D9681EED
:10670000029001270C98FF0740080190281B401EAB
:10671000C0B203460A220121401E002B0ADDC30736
:10672000FB4200D00A21401C401003D0514351438A
:10673000401EFBD1059803F054FA0A2103F051FAE8
:10674000002E05D10298844202DA002913D00126D6
:10675000012030310090CAB201980399604340187B
:10676000C0B20C9B0499FFF768FF641CE4B2AC4212
:10677000CCD307B0F0BD012000900198039960438D
:106780004018C0B220220C9B0499FFF756FFECE79B
:10679000F7B5107882B01646002847D03B4F0298D4
:1067A0007A2801D8039805E0002002900398103061
:1067B000C0B203903A2829D90020029004460390E1
:1067C000E000C01904F078FD641CE4B2802CF7D31B
:1067D00000242046B030C0B20021FFF755FE002152
:1067E0000846FFF751FE00211020FFF74DFE00255F
:1067F000E800C019005D0121FFF746FE6D1CEDB2F7
:10680000802DF5D3641CE4B2082CE2D30120009063
:106810003278102303990298FFF70FFF029808308F
:10682000C0B202907078761C0028B8D105B0F0BDD7
:10683000F7B50446064682B00A21104603F0D1F9A6
:106840000021401E8C4600061349000D40180090A0
:106850006146475C0025380605D50122204603998C
:10686000FFF799FE04E0002220460399FFF793FE0C
:106870007806641C070EE4B2A01B082816D06D1C15
:10688000EDB2082DE7D309E0000500506C27002089
:1068900010B4010084B8010074BE01006046401CC1
:1068A000C0B28446102807D20098D1E70398344636
:1068B000401CC0B20390E6E705B0F0BDF3B581B06F
:1068C000044605460298009000208446C948614667
:1068D000475C0026380605D5012220460299FFF7BD
:1068E0005AFE04E0002220460299FFF754FE780683
:1068F000641C070EE4B2601B08281CD0761CF6B29C
:10690000082EE7D36046401CC0B284461028DDD371
:10691000083500980290ECB2002026468446B5481F
:1069200000256044077C38060BD5012220460299D9
:10693000FFF731FE0AE002982C46401CC0B20290DC
:10694000E0E7002220460299FFF725FE7806641C46
:10695000070EE4B2A01B08280BD06D1CEDB2082D69
:10696000E1D36046401CC0B284461028D7D303B0A0
:10697000F0BD02983446401CC0B20290F1E770B5F9
:106980009D4901200862886248620863C8624863C2
:106990009A4C4003A060C510E560642000F07AFACC
:1069A000A5600021AE20FFF76FFD0021D520FFF785
:1069B0006BFD00215020FFF767FD0021A820FFF7A5
:1069C00063FD00213F20FFF75FFD0021D320FFF78B
:1069D0005BFD00210846FFF757FD00214020FFF72F
:1069E00053FD00218D20FFF74FFD00211420FFF7FC
:1069F0004BFD00212020FFF747FD00210220FFF77B
:106A000043FD0021A120FFF73FFD0021C020FFF73B
:106A10003BFD0021DA20FFF737FD00211220FFF7B0
:106A200033FD00218120FFF72FFD0021EF20FFF72C
:106A30002BFD0021D920FFF727FD0021F120FFF7D2
:106A400023FD0021DB20FFF71FFD00213020FFF791
:106A50001BFD0021A420FFF717FD0021A620FFF752
:106A600013FD0021AF20FFF70FFDFFF76AFD70BD9A
:106A7000F0B501226149520383B000286DD08A60CD
:106A8000FFF77DFFFFF75DFD00215DA20846FFF7E0
:106A90007FFE00212020FFF711FF5AA20021402095
:106AA000FFF776FE59A220210020FFF771FE102487
:106AB0005A4D0094042320210020EA68FFF718FEB5
:106AC00000940223202128202A69FFF711FE009458
:106AD0000223202140206A69FFF70AFE0094022366
:106AE000202158202A68FFF703FE0094022320216A
:106AF00070206A68FFF7FCFD494D286803F006FD29
:106B000002460223002110200094FFF7F1FD68687F
:106B100003F0FCFC02460223002150200094FFF702
:106B2000E7FD002000903F487824007825460A21A0
:106B300003F057F80021401E8C4600063A49000D2C
:106B4000401801906146475C0026380613D50122A3
:106B500020460099FFF71FFD12E0FF200130C860BA
:106B60008000C8604010C860C000C8604010C860A5
:106B7000CA6003B0F0BD002220460099FFF70BFD6C
:106B80007806641C070EE4B2601B08280BD0761C44
:106B9000F6B2082ED9D36046401CC0B284461028F5
:106BA00007D20198CEE700982C46401CC0B2009056
:106BB000F1E71E4E00242046B030C0B20021FFF79E
:106BC00063FC00210846FFF75FFC00211020FFF75F
:106BD0005BFC0025E8008019005D0121FFF754FCF3
:106BE0006D1CEDB2802DF5D3641CE4B2082CE2D309
:106BF00003B0F0BD14BF01000007005000050050B5
:106C0000543A0000523A2020250000002020202085
:106C10002D20202D20202C20203A00002C21002087
:106C20001C2000201820002074BE01006C270020CA
:106C300010B5044680070CD16421204602F0D1FF34
:106C4000002908D1FF219131204602F0CAFF002916
:106C500001D0002010BD012010BD70B50D461646B4
:106C6000642102F0BEFFC0B20C46132801D964347F
:106C7000E4B2A0080019072102F0B3FF6A4889199D
:106C800040192038C07F401880B2A10703D1032DDE
:106C900001D2401E80B2072102F0A3FF084670BD5A
:106CA00030B40023002A0CD904780D78401C491C0C
:106CB000AC4202D030BC002070475B1CDBB2934278
:106CC000F2D330BC01207047F8B4584A0020146851
:106CD0006946225C0A54401CC0B20328F9D300253F
:106CE00068002918524803260A18694600201778B8
:106CF0000B78491C521C9F4204D06D1CEDB20C2D28
:106D0000EED303E0401CC0B2B042F0D349496D1C41
:106D10000D612079202831D00A2330386279584318
:106D2000303810184861E0797D23A27ADB003038D2
:106D300058431318207A64225043627A0A2462432B
:106D400080183D4A18188018C8603C4800680278CE
:106D50004378303A6243303A9A180A60C27803792D
:106D6000303A6243303A9A184A60C27980793038B2
:106D70006043303810188860F8BC7047607930384C
:106D8000D0E72C4881683C294DDB002282604168B5
:106D9000491C41603C2946DBF0B5264883B0002100
:106DA00041600168491C01600191C6682149B0B287
:106DB00000900C694D6927468007641C6D1C761C89
:106DC00000280CD16421009802F00BFF002917D194
:106DD000FF219131009802F004FF002910D00199A1
:106DE000144818290ADB0021154A45610160D25D6B
:106DF000954203DB046141610C2C10DA03B0F0BD55
:106E000001990C481829F9DB00210E4A45610160FF
:106E1000D25D9542F2DB046141610C2CEEDBC66071
:106E2000016103B0F0BD704734BF010010200020A5
:106E300058BF01002C21002030EBFFFF1420002060
:106E400040BF01004CBF01000C48002101600D480B
:106E50000B4A4260C16001218160704707490120EF
:106E60000860704708480068C00702D00849074812
:106E70000860704701490020086070470000014029
:106E8000FFFF590000050140000401403546526EE5
:106E90000006014031B50098002809D0054C009942
:106EA0002046491E0091FDF779F900990029F6D195
:106EB00038BD0000E7030000F8B5FF4C2020A060BB
:106EC0004025A5600420FDF779F92069800602D5E8
:106ED000206940060FD42069400611D500261127ED
:106EE000E5600420FDF76AF9A5600420FDF766F966
:106EF0002069800601D5012603E07F1EF0D200E064
:106F000000263046F8BDF8B5ED49EC484861886187
:106F1000E94C4025A560A5612020A060A061A0608B
:106F2000A5600420FDF74AF92069800602D5206992
:106F300040060FD42069400611D500261127E560D0
:106F40000420FDF73BF9A5600420FDF737F920691F
:106F5000800601D5012603E07F1EF0D200E0002666
:106F60003046F8BD38B5D7480090D34C4020A060DB
:106F70000420FDF723F920698009C00707D1009894
:106F8000411E009104D320698009C007F7D0012079
:106F900038BD70B5C84C2025E5600420FDF70EF91A
:106FA000FFF7E0FF002804D0A5600420FDF706F9F4
:106FB000012070BDF0B5074683B001200090BE4CA3
:106FC0002020A06180264025E5600420FDF7F6F82A
:106FD000374202D02020A06001E02020E060B948C4
:106FE0000290A5600420FDF7E9F820698009C00738
:106FF0000AD10298411E029102D20020009005E0C1
:1070000020698009C007F4D07608DDD1E56004204E
:10701000FDF7D4F82027E7610420FDF7CFF8FFF74C
:10702000A1FF009908402169E5608906CE17761C0A
:1070300006400420FDF7C2F8A761304603B0F0BD5A
:10704000F3B583B00120002600909B4D2020E8611D
:10705000802440279B480190AF600420FDF7AEF8E4
:1070600028698009C0070AD10198411E019102D206
:10707000002000900EE028698009C007F4D028693C
:107080004009C00700D02643EF600420FDF796F8C2
:107090006408DFD12020A86103990E7004990029AB
:1070A00001D0E86000E0A8600420FDF787F8FFF752
:1070B00059FF002800D10090EF600420FDF77EF812
:1070C000009805B0F0BD70B57B4C2025A56004206C
:1070D000FDF774F8FFF746FF002809D0E5600420AB
:1070E000FDF76CF84020E0600420FDF767F8012010
:1070F00070BDFFB50646704C85B02020A06004200E
:10710000FDF75CF8FFF72EFF4025002811D0202066
:10711000E0600420FDF752F8E5600420FDF74EF82A
:1071200001273046FFF746FF38400090F1077BD13A
:10713000D4E00027F5E706980029039010D001203D
:10714000002701902020E06180265E480290A56023
:107150000420FDF733F820698009C00736D040E0ED
:107160000120002701902020E061802655480290F0
:10717000A5600420FDF722F820698009C0070AD124
:107180000298411E029102D2002001900EE0206977
:107190008009C007F4D020694009C00700D03743F8
:1071A000E5600420FDF70AF87608DFD120202646A6
:1071B000A06103990F70A0600420FCF7FFFFFFF7A8
:1071C000D1FE002825D10020019022E00298411E26
:1071D000029102D2002001900EE020698009C007D0
:1071E000F4D020694009C00700D03743E56004208F
:1071F000FCF7E4FF7608A8D120202646A061039979
:107200000F70E0600420FCF7D9FFFFF7ABFE002809
:10721000D9D0F5600420FCF7D1FF0099019808400F
:1072200000900698401C06900798411EC9B207912D
:1072300000285CD00098002800D07CE757E0069832
:107240000778012002902020A0618026E5600420BC
:10725000FCF7B4FF374202D02020A06001E02020DC
:10726000E06018480190A5600420FCF7A7FF2069A2
:107270008009C0070AD10198411E019102D2002065
:10728000029005E020698009C007F4D07608DDD1BE
:10729000E5600420FCF792FF2027E7610420FCF75B
:1072A0008DFFFFF75FFE029908402169E5608906BE
:1072B000CE17761C064007E0000500500C060000C3
:1072C00000070050305705000420FCF777FFA76146
:1072D0000098064006980096401C06900798411EAC
:1072E000C9B20791002802D000980028A7D10899B8
:1072F0000098884302D0009809B0F0BD2025E560D1
:107300000420FCF75BFFFFF72DFE002804D0A560EA
:107310000420FCF753FF012000990840009009B0B9
:10732000F0BD0000FFB585B00546022086460898EE
:107330000E9C0291009020780190002728883E46FC
:1073400000283FDD6868B1004018028869460A825B
:1073500040884882002203A904A854DF00285CD199
:107360006846017B714520D1002F01D0002200E04A
:1073700002222078891841181F294DD8002F07D1E3
:10738000401CC0B2411C009B029A21701A54012774
:10739000217800980A1803A904A854DF00283CD1DA
:1073A00069462078097B401820702888761CB042F6
:1073B000C8DC002F06D021780198019A081A00999C
:1073C000401E8854079802901020864608980E9C0C
:1073D000009020780190002728883E46002842DD52
:1073E0006868B1004018028869460A82408848826D
:1073F000002203A904A854DF00280ED16846017BAF
:10740000714523D1002F01D0002200E00222207814
:10741000891841181F2902D90C2009B0F0BD002F8E
:1074200007D1401CC1B2481C009B029A20705A54DC
:107430000127217800980A1803A904A854DF00281E
:10744000EBD169462078097B401820702888761C8B
:10745000B042C5DC002F06D021780198019A081AA5
:107460000099401E8854002009B0F0BDF7B582B0E5
:1074700000260546167000681446002828D01D20F6
:107480006946039F08802178B81C081869466DDF9B
:1074900000287DD12879002807D0694609888842CC
:1074A00003D269460880082000E009208446684627
:1074B00002882178521C481C20707A542278614638
:1074C000501C2070B9546846217800880818207034
:1074D000687900281CD02078039F001D1F287DD8C4
:1074E000684669DF002853D121780322481C2070A8
:1074F0007A5421781922481C20707A5421786846E1
:107500000088C9190870000A48702178891C217008
:10751000298900291ED001208446EA680398002AA0
:107520007ED0227853189B1C1F2B57D81346521C11
:107530002270491CC15422786746511C217087541F
:1075400023782A891818E96802F0EAFA2078297A5B
:10755000401820702869002815D000214156227853
:107560008C46D01C03991F2838D8501C0223207049
:107570008B5422780A23501C20708B542378624647
:10758000581C2070CA54A88A00280BD0009400E030
:1075900076E02846062202211430039BFFF7C2FE44
:1075A00006006DD1A88B002809D028460094072238
:1075B00003211C30039BFFF7B5FE060060D1A88CA9
:1075C000002809D028460094152214212430039B5A
:1075D000FFF7A8FE060053D1E86A00E04FE000285C
:1075E00040D0217884468E46891D03981F2946D8AD
:1075F00061460B88062B13D31922D201734F934295
:1076000001D9BB420CD161464988062908D3914271
:1076100001D9B94204D1BB4205D0B94203D000E040
:1076200080E08B427ED87146491C0523724621704A
:10763000835422781223511C21708354227861468E
:10764000098812181170090A51702178891CCAB270
:1076500022706146498810180170090A417020782B
:10766000801C2070286B002830D00090007923788F
:10767000801CC0B2811C5918039A1F2902D90C2002
:1076800005B0F0BD591C2170401CD0542178FF2357
:10769000481C20705354009801882078801801708D
:1076A000090A41702078801CC0B2207000998B8834
:1076B000002B0BD0896800294ED080181A4602F0A2
:1076C0002FFA009821780079081820702846203079
:1076D0000190007E00283CD003990091696B00293D
:1076E0003DD00026002833D90C20696B70430F1859
:1076F000387922780099C01C885420781621401CC3
:10770000C0B22070009A11542078401CC1B2217080
:10771000009A388889180870000A48702078801C00
:10772000C0B200E018E02070BA88002A0AD0B96818
:10773000002914D0009BC01802F0F2F920783979A2
:10774000401820700198761C007EF6B2B042CBD86B
:107750000026304605B0F0BD072005B0F0BD07207B
:1077600005B0F0BD70B50D4692B000216A461170AB
:1077700007241171002812D00189002905D0C168A1
:10778000002902D00978490702D4204612B070BD02
:1077900002A9FFF76BFE0028F8D102AE00E0002638
:1077A000002D0BD028890028EFD101AA0AA928466C
:1077B000FFF75CFE0028E9D10AAA00E00022684633
:1077C00003790178304662DF12B070BDFFFF000020
:1077D00070B50546012000070069502180B202F013
:1077E00000FAFD4C01462079814201D8042070BD89
:1077F00000280CD100221146104600F081FFA08124
:10780000F648F749007801F0C2F80028EFD1206966
:1078100013222946001D00F0E5FF0028E7D1F14AB8
:107820004C21284600F06CFFEF49A08141182069E7
:1078300000F0BAFF0028DAD12069503020612079A9
:10784000401C2071002070BDE34800218170C17090
:107850004278002A2BDDF0B4074664200B464343F0
:10786000E2481818437A5B070ED542231B5C022BB3
:107870000ED1FB780678DE4CDD0066552C191E30E3
:107880005B1C6060FB700DE042231B5C022B09D087
:10789000BB780678D74CDD0066552C1942305B1C4E
:1078A0006060BB70491C9142D7DBF0BC70477047E9
:1078B000F0B5C94F04463878C84E83B0002802D1CD
:1078C000B16808208847CC482188054650351729DB
:1078D0007ED024DC102933D011297AD0142979D113
:1078E0007A78E18900202546002A74DDBF4C6423A4
:1078F00043431B19DB8F8B426ED16421484301192E
:107900006422BD48FCF78AFC0120F8710022BB49C3
:10791000788971DF04006BD0B168884756E1182977
:1079200070D0522964D10168491C63D0B97900290B
:1079300060D0006E002868D00E2864D9032016E1BC
:10794000A18879810021AC4DC94329600722A11D7E
:10795000AB4802F0E5F800202866607BC10714D030
:107960004008072804D2C100A1484056072803DB7D
:10797000B168032088471DE0642148439B49642285
:1079800041189D48FCF74AFC14E0B8780024002810
:1079900010DD984D9B480090E00040194068062299
:1079A000401C009902F06DF800281CD0B878641CC7
:1079B0008442F1DB90480168491C19D00021F9711B
:1079C00039727168002913D001220092027804E014
:1079D00025E00BE00CE0DEE0D9E06B461A71C08FC9
:1079E000D880684660E0E0002856C5E70020B871FE
:1079F00003B0F0BD002211467889A9DF00286BD1C1
:107A000003B0F0BD02E1294600E0002182B278898E
:107A1000A9DF002860D10120387203B0F0BDA2793F
:107A2000A11D002AF9D1BA79002AF6D00268521CA9
:107A30003DD0694B0122DA7104460F463222001D07
:107A400002F06EF8F888E087002020660E212846B4
:107A500002F0C5F8604864214078644D48434019FD
:107A6000643802F0BCF8642120680A464843401993
:107A7000691AFCF7D3FB5848002211464089A9DF58
:107A80005D48FFF7A5FE042875D0002801D0B16835
:107A9000884771680029C0D00320009020786A468A
:107AA0001071E08FD0806846884703B0F0BD52481F
:107AB0007C78C28F0020002C12DD4C4D64234343A0
:107AC0005B19DB8F934208D164214843411964223A
:107AD0004948FCF7A3FB0F2049E0401CA042EDDB26
:107AE0000D46072C01D3042041E0434F3222381DBC
:107AF00002F016F8E888F88700203C6038666420B9
:107B000060433A49344D4018641C6C7064226439F7
:107B1000FCF784FBFFF798FE0120E8710022114674
:107B20006889A9DF002822D13846FFF751FE0428D2
:107B300002D000281BD10BE07168002917D0042067
:107B4000009038786A461071F88FD0806846884770
:107B500071680029A9D00020009038786A46107119
:107B6000F88FD0806846884703B0F0BD03E0B16865
:107B7000884703B0F0BD7168002988D004200090C8
:107B800020786A461071E08FD080684680E7401CFC
:107B9000904200DAABE61C48E988018029894180DF
:107BA00069898180A989C180E9890181298A418106
:107BB00000221146788971DF002801D0B16888471A
:107BC000002211467889A9DF0400D2D0B16820468E
:107BD000884703B0F0BD000084200020A42B0020C3
:107BE00094200020902000200000DE45142C00206E
:107BF000082F0020D02E0020B02B0020BA2B002010
:107C0000F22B0020F32B0020E62B0020A279110795
:107C1000090F120901290DD00229DAD1002AD8D082
:107C20000121B9710446006E002809D00E2805D93B
:107C300003200BE0012AF3D803B0F0BD294600E091
:107C4000002182B27889A9DF002802D0B168884774
:107C500001E00120387271680029EDD00220009007
:107C600020786A461071E08FD0806846884703B05C
:107C7000F0BDF8B5F84C207800287DD0F748F84DD5
:107C80000068401C2FD00E20694608806A46F549DE
:107C90006089AADF002870D1F04869460668C6648A
:107CA00009880166002E69DB6078864266DAE07931
:107CB000002806D06420704340194C22E749FCF7A5
:107CC000ADFA207A00280CD06420E74946437019A9
:107CD0000A461032CCCA4C30CCC04A6A096A4260AB
:107CE0000160FFF7B1FD00221146104600F008FDCB
:107CF000694608806078002600280CDD6420704307
:107D00000A4640194C2100F0FBFC69460880607867
:107D1000761C8642F2DB0888A189D44F884214D0B1
:107D2000387800F088FD00284AD120710646607836
:107D300000280ADD642070434019FFF749FD002840
:107D40003ED16078761C8642F4DB00221146104654
:107D500000F0D6FC6946088060780026002811DD16
:107D60006420704340190A4618214C3000F0C8FCCA
:107D700069460880607802E023E021E023E0761C79
:107D80008642EDDB0888E18988424CD0787800F0A3
:107D900052FD002814D1607106466078002842DD4B
:107DA000642070434719012000070069502180B208
:107DB0004C3701F016FF01466079814205D8042056
:107DC000F8BD0820F8BD0320F8BD00280CD1002222
:107DD0001146104600F094FCE081A448A449407884
:107DE00000F0D5FD0028EFD1606906223946001D5C
:107DF00000F0F8FC0028E7D19E4A1821384600F030
:107E00007FFC9D49E0814118606900F0CDFC0028AD
:107E1000DAD16069761C1C3060616079401C607149
:107E200060788642BCDB0020C0438C4960810860DA
:107E3000C86400200866E0712072F8BDF8B5874C70
:107E4000206E002801D00820F8BD0E206946088069
:107E500081486A4683494089AADF0028F4D1206816
:107E600064227F4B4243D2186946E0640988283B6C
:107E7000216617464C37DE699D695C6971C7186ACF
:107E80001166D0657D4800F0D2FAF8BD72480178DD
:107E9000002901D10820704770B500244470047196
:107EA000724D4471287800F0C6FC002805D168782E
:107EB00000F0C1FC002800D1204670BD10B50B4673
:107EC000411C14D064494978884210DA002B0ED046
:107ED00064214843624941184220405C022806D090
:107EE00007221846423101F01BFE002010BD07207A
:107EF00010BDF1B55848C778002F41D000240721A4
:107F0000384601F06EFE00235D485E4A002908DD18
:107F1000E5002D18A6006D685B1C641C95518B4212
:107F2000F6DBB9422CDAE3001B18A5005B6853515D
:107F3000641CE3001B18A5005B685351641CE3003C
:107F40001B18A5005B685351641CE3001B18A500B7
:107F50005B685351641CE3001B18A5005B68535118
:107F6000641CE3001B18A5005B685351641CE3000C
:107F70001B18A5005B68C91D641C5351B942D2DBB4
:107F800035488578002D42D000240721284601F08D
:107F900028FE00203C4A002909DD3C4BE600F3188E
:107FA000A6005B68401C641C93518842F5DBA94223
:107FB0002DDA3648E3001B18A6005B689351641C59
:107FC000E3001B18A6005B689351641CE3001B18B8
:107FD000A6005B689351641CE3001B18A6005B6855
:107FE0009351641CE3001B18A6005B689351641C4A
:107FF000E3001B18A6005B689351641CE3001B1888
:10800000A6005B68C91D641C9351A942D2DB00988D
:10801000002D057101D01C4900E000210098002FBF
:1080200001600098077301D0164900E00021009814
:1080300081600020F8BDF0B5816897B0002927D095
:10804000012212071269232392B21B019A4222D203
:108050000C2017B0F0BD000084200020B02B0020C1
:10806000142C0020002C0020EC2B0020A42B00203E
:1080700098200020922000200000DE45FC2B0020EC
:10808000082F0020882B00206C2B0020D02E0020F1
:10809000072017B0F0BDFE4A43680068D36311643F
:1080A00090636421FB4801F09AFD0026F948F643ED
:1080B000F94C066066810025657025716571F74F82
:1080C000A571B878002809D0387800F0B4FB0028F2
:1080D000DFD1787800F0AFFB0028DAD1F04F65707F
:1080E000207902AE00280CD100221146104600F083
:1080F00007FBA081E948EB49007800F048FC002824
:108100001CD121690868020CBA4214D185B24C22F4
:108110003046091DFCF782F8E34A4C21304600F056
:10812000EFFAA081A84211D12079401C207120696A
:108130005030206106E0401C21D00B2005281ED0C5
:108140000028A6D16078029D854202DD0B2017B081
:10815000F0BD642029464143D4484C220E1802A9A0
:108160003046FCF75BF86078854205D10021316626
:10817000491E401CF1646070C0B20728B0D30020D3
:108180000090607800284DDD607902AE00280CD1A7
:1081900000221146104600F0B3FAE081BF48C449FE
:1081A000407800F0F4FB002822D16069BC4A0168E5
:1081B0000B0C934219D18DB2021D8ECA0392059702
:1081C000049302918169406907910690B94A182188
:1081D000304600F095FAE081A842B7D16079401CA2
:1081E000607160691C30606106E0491C1AD00B2088
:1081F000052817D00028AAD1607802998142A5DC11
:1082000064225143A94A02AF89186CCF0F464C37FC
:108210006CC7079B069A0B66CA650099491C0091BA
:108220008142B1DB607807210B1A002B11DD64213C
:1082300048439E49002640180146024660314C30B2
:10824000751E15600E6005606430643164325B1E1B
:10825000F7D1FFF7F9FA01202070002017B0F0BD28
:108260008D4A1378002B07D0002907D00B8852784D
:10827000934205D20C207047082070470E207047AB
:108280000A800028FBD030B40021002A09DD874C89
:1082900064234B431B194D00DB8F491C4353914210
:1082A000F6DB30BC00207047F8B57B4B197800290D
:1082B00075D05A780021002A77D97C4C64254D432B
:1082C0002D19ED8F85426CD148B2411C6DD0C5B2DD
:1082D000521E954217DA64202F4647433E19311843
:1082E00030466422FBF79AFFE059401EE051F06CE3
:1082F000411C01D0401EF06467486D1C4078EDB20F
:10830000401E8542E7DB644D6421687848430019CC
:10831000643801F064FC6878604E401E6870307804
:10832000604900F034FB002835D17078604900F0D6
:108330002EFB00282FD1307800F07DFA00282AD1BA
:10834000707800F078FA002825D128716871064607
:10835000687800280BD9642070430019FFF738FAB9
:10836000002818D1761C6878F6B28642F3D300262E
:108370000006000E4AD06420704307190120000750
:108380000069502180B24C3701F02BFC014668791E
:1083900081420CD80420F8BD01E006E001E008208D
:1083A000F8BD491CC9B2914288D30520F8BD002808
:1083B0000CD100221146104600F0A2F9E88137489E
:1083C0003B49407800F0E3FA0028EFD168690622C3
:1083D0003946001D00F006FA0028E7D1354A182179
:1083E000384600F08DF93449E8814118686900F099
:1083F000DBF90028DAD16869761C1C30686168797D
:10840000F6B2401C687168788642B4D3FFF71CFA54
:108410000020F8BD20490A78002A06D08979002971
:1084200000D001210170002070470820704770B50E
:108430000546012000070069502180B201F0D1FB00
:10844000154C01466079814201D8042070BD002896
:108450000CD100221146104600F052F9E0810F487D
:108460001349407800F093FA0028EFD160690622A2
:108470002946001D00F0B6F90028E7D10D4A182161
:10848000284600F03DF90C49E0814118606915E08B
:108490006C2B0020B02B002084200020A42B002077
:1084A000DE4500009420002090200020142C0020A5
:1084B00098200020922000200000DE4500F074F992
:1084C0000028C3D160691C3060616079401C607114
:1084D000002070BD38B58349834A488890420FD048
:1084E0004A78824C521CD2B24A70237B934208D302
:1084F0007F4965DF002803D0A169002900D08847A3
:1085000038BD00254D70217C002907D03B2166DF56
:10851000002803D0A169002900D08847616900299B
:10852000EED068460095884738BD70B53CC86F49A5
:108530003CC18468436802688C604B60694C0025CC
:108540000A6025701038006800280CD0018821814D
:10855000418861818188A181C188E18164486ADFA5
:1085600000280DD103E062486BDF002808D100200D
:10857000C043608065705F4A00215F4800F09BFD4A
:1085800070BD10B55748406800F027FE10BDF8B523
:10859000564C07880026534A811CE389102F16D0B9
:1085A00015466D68112F22D0122F37D0502F1DD1B4
:1085B000C188801D994219D1018B022916D1C17E33
:1085C000827E08021043C007C00F0DD11CE08088D6
:1085D000508088891082C8895082088A9082488A8F
:1085E000D0825670002B01D100F04BF8F8BD00206E
:1085F000C04350805670284600F0EFFD0028F5D0AB
:10860000A169002908D1F8BD284600F0E6FD002840
:10861000F9D0A1690029F6D08847F8BD8888108272
:10862000C8885082088990824889D08200F029F851
:10863000F8BDF8B52B4D0188298141886981818871
:10864000A981C188E9812A486ADF060010D12B4838
:10865000012441880838028891420BD34088814226
:1086600008D822484169002902D06846009488470A
:108670003046F8BD2C701E49688865DF06466C7070
:10868000F6E7F8B51D48194D4288083803880026DA
:10869000144C69699A420AD34088824207D8012063
:1086A000002902D00090684688472670F8BD2078DF
:1086B000002805D00029F8D0684600968847F4E7DE
:1086C000607800280BD0A9680022606800F01BFDCC
:1086D0000028EAD0A9690029E7D08847E5E769685A
:1086E000F2E700009C200020FFFF0000402F002048
:1086F000A4200020D5840100A0200020AC20002070
:10870000F0B40546002A4DD010884A1E002A37DDF5
:1087100001266B1ECC07F607F4420ED0040A0002B5
:108720000443587860400406240F4440200360400E
:1087300084B22006C00C60405B1C5E7852101FD0D3
:10874000070A0002074377403806000F7840060307
:108750004640B0B20606F70C4740380A9C783F0204
:10876000384360400406240F44402003604084B234
:108770002006DE78C00C6040521E9B1C002ADFD110
:10878000491E0DD4020A00020243685C50400106F3
:10879000090F41400803484081B20806C00C484018
:1087A000F0BC70477F48B0E7F0B47F4C06462078B5
:1087B0000D46002803D03DDF20780028FBD17B49FF
:1087C000012048607A4A10680028FCD035601068A3
:1087D0000028FCD00020486010680028FCD0F0BCC5
:1087E00000207047F7B506460024964610001FD0BB
:1087F0006D4D0198A10047582878002803D03DDF2F
:1088000028780028FBD1694901204860684802683F
:10881000002AFCD037600268002AFCD000224A609F
:1088200001680029FCD0641CA4B2361D7445E0D355
:10883000002003B0F0BD0121090709695B4B8AB232
:108840004243022058605A4801680029FCD09A60CF
:1088500001680029FCD00021596001680029FCD082
:1088600000207047F8B58C460121090709691746B1
:108870008EB246439100002260460096FFF740FF0B
:108880008646308881B2714559D0484D0221009802
:108890006960474C21680029FCD0A8602068002846
:1088A000FCD00020686020680028FCD00022083638
:1088B000002F14DD01219000634618586960236879
:1088C000002BFCD0306020680028FCD000206860BD
:1088D00020680028FCD0521C361DBA42EBDB324E19
:1088E0003078002803D03DDF30780028FBD101200C
:1088F000686020680028FCD0009847602068002845
:10890000FCD00020686020680028FCD0294970460F
:1089100047183078002803D03DDF30780028FBD19D
:108920000120686020680028FCD00098076020685B
:108930000028FCD00020686020680028FCD00020BF
:10894000F8BDF8B50F46012109070969144689B237
:1089500041430D68174E280C0004B04203D000209C
:1089600010700520F8BD0879207082003846083163
:10897000FBF754FC2078002281003846FFF7C0FE48
:108980008019A84201D00520F8BD0020F8BD0122C1
:108990001207126992B2424300200A6070470249EE
:1089A00008707047FFFF0000B420002000E5014080
:1089B00000E401400000DE451049012208785040E3
:1089C00008704968002900D00847704730B4054650
:1089D0000A480C464260152027DF00280BD12946A3
:1089E000152028DF002806D1152023DF002802D11A
:1089F0002146032049DF30BC70470000B82000202A
:108A000010B508461146FBF7A7FD10BD30B4029D16
:108A10008C070ED100290CD0204CE1602280A5608B
:108A20001F49636010DF002801D1162023DF30BC0E
:108A3000704730BC0720704738B5184C694620880D
:108A40000880E06850DF052809D0002803D015A26F
:108A50005F21FBF779FD6168E0688847EEE738BD84
:108A600038B50E4CA068002807D08047002803D0F6
:108A70000CA27121FBF768FD38BD2088694608808B
:108A8000E06850DF0528F7D0002803D005A25F2159
:108A9000FBF75AFD6168E0688847EEE7C0200020D8
:108AA000018A0100536F757263655C626C655C627C
:108AB0006C655F737461636B5F68616E646C657233
:108AC0002E630000F8B5614E04466946707800F0E8
:108AD000FFF900282CD10099F0680A460140B068DF
:108AE00090430843044023D03078002500281FD944
:108AF00001270C207168684342181078394681407C
:108B0000214210D09268002A0DD07369002B09D041
:108B1000014610469847002805D04DA22921FBF7B1
:108B200013FD00E090476D1C3078EDB28542E0D334
:108B3000F8BD70B5454D04460E46A86900F04DFBE2
:108B4000002805D1344322462969A86900F0DBFAE0
:108B500070BD052A01D207207047F8B53B4C606014
:108B60002170636122610022E2604B1EA260DCB2D0
:108B7000002920D03E4F13460C2161430E18317856
:108B800075688900AD00C9190D607578002D01D098
:108B9000012100E000213678B1400B43002D19D0AF
:108BA0000021B1400A432146641EE4B20029E3D10A
:108BB0002648C360826025482E4B8268C1682E48D3
:108BC00000F0D5F8002804D12C4A00212C4800F0F0
:108BD00072FAF8BD0121E4E71C484168002901D17F
:108BE0000820704710B5407800F0FCF810BD10B5B3
:108BF000164C6068002808D0607800F038F900282A
:108C000002D1A06900F0E9FA10BD082010BDF8B546
:108C10000E4C064660680D46002815D069466078FF
:108C200000F056F900280AD101220098B240024211
:108C300006D1A068104000D0012028700020F8BDA7
:108C4000E0681040F8D1F8E70820F8BDD0200020F7
:108C5000536F757263655C6170705F636F6D6D6F8C
:108C60006E5C6170705F627574746F6E2E6300006D
:108C700000070050338B0100D1200020C58A01007D
:108C8000E8200020F8B59D48006900909C4900202C
:108C9000C86304469B484178002941D903273F0413
:108CA0001420214641439748426880688A18012170
:108CB000A14001422ED0D068C343009843401068C1
:108CC00003400020012585402B4212D0D6682E4259
:108CD00003D1012149042E4301E03946AE43D66059
:108CE000894D860075192E68BE432E602E680E438E
:108CF0002E60401C2028E5D3009891681D468543CE
:108D00002940009D50681D40284003460B4301D078
:108D1000126990477B48641C4078E4B28442BFD318
:108D2000F8BD002901D08A0701D00720704710B58F
:108D3000744A0B46516010700021517091601421EB
:108D40004143184600F04BFF00207049C043886043
:108D50006F48402101606F484268FF231B049A431B
:108D60000B04D21842606C480160002010BDF0B4C2
:108D7000844664484568002D08D0002B09D044780B
:108D80000678B44208D3F0BC04207047F0BC082039
:108D90007047F0BC072070470F4614261743664300
:108DA000AF5176193361B260716061460C70611C1D
:108DB0004170142100204C430122534B03273F04F0
:108DC0002E59114681400E4206D08100C9180E6806
:108DD000BE430E600E680E60401C2028F0D3F0BC2D
:108DE00000207047F0B4474C6268002A05D06178D3
:108DF000884205D3F0BC07207047F0BC08207047BC
:108E00003F490025CD633D4909698C46A168002989
:108E100003D101233D4EDB077360012686400E43DC
:108E2000142148438118A660CD60032500212D043C
:108E30008618012413588C40234212D063462342E3
:108E400001D02B4604E00123F7685B042743F76059
:108E50002D4C8F003C192768AF43276027681F43BC
:108E60002760491C2029E4D3F0BC00207047F8B5E6
:108E7000244A5568002D04D05178884206D3072033
:108E8000F8BD26A000F008FD0820F8BD142200213E
:108E90004243012403273F04AE5823468B401E4221
:108EA00007D0194E8B009B191E68BE431E601E68BA
:108EB0001E60491C2029EFD3124984408868A043D2
:108EC000886003D101201149C00788600020F8BDE7
:108ED0000C4B5A68002A04D05B78984203D30720D1
:108EE000704708207047142358438018034A1269BA
:108EF0000068024000200A60704700000005005032
:108F000040610040EC20002000070050006300405A
:108F100080E200E000E400E000E100E06170705FEA
:108F20006770696F74655F757365725F646973619B
:108F3000626C650D0A000000F8B5FB49002008606E
:108F400048608860C860F94908604860F84EF46875
:108F5000601C36D0F748002740683169401A050286
:108F60002D0A28204443706822189068A84215D81A
:108F700073692D1AC719546A002B0AD0116AD06977
:108F80009847002808D0FF21EBA25531FBF7DCFA07
:108F900002E0D169106A8847601CE2D1B178F078AC
:108FA000814206D1401CC0B2F070022801D10020DD
:108FB000F0700006E849800D0F500120E7490005D8
:108FC0000860F8BD10B500F0F8F910BDFFB581B02C
:108FD0000A9F1C4615460E46980769D1002C67D09B
:108FE0000120DF4940040860DE4940108860DE4906
:108FF0008860DE49012048602F20FBF7EFF8CC485D
:1090000021464761067044600020002E13D00A46B6
:10901000283A1039F30703D02831906208702832BB
:10902000730808D028279062785410655031503268
:1090300008705B1EF6D128214E433119BC4C032227
:109040006270A16008700A46487018328D704A60DC
:1090500018232E4608725E434872B2188D72CA6099
:1090600008744874B2188D744A610021C943E160E4
:10907000A070E0700121BE4809050160BD4802688A
:10908000C023120A12021A430260BB480160A949B8
:1090900001988860B94A1068FF231B029843032394
:1090A0009B031843106048682061002005B0F0BDA4
:1090B000072005B0F0BD70B59D4D6C68002C11D037
:1090C000002A14D0002812D02D780023002D07DDAF
:1090D00028265E43A659002E0BD05B1CAB42F7DB63
:1090E000042070BDA6A000F0D7FB082070BD0720AB
:1090F00070BD282501265D4366512C19E26161602F
:109100000360002070BDF0B4894B5D68002D0CD069
:109110001C78A04201D2052902D2F0BC072070477A
:10912000282444432E59012E02D0F0BC0820704759
:1091300064196468012C14D00026964D6C68E4050F
:10914000E40D1ED0103C0ED527073F0F083FBF0887
:10915000BF007D19ED69A407E40EE5402C06A40FBD
:109160000BE00E46E9E7A5088B4FAD00ED192D6821
:10917000A407E40EE5402C06A40F012C26D0032CF6
:1091800026D002248C469B68E100CC186378A7782F
:109190001D465B1C9F4200D1002327789F4219D0B7
:1091A000182167684D43791914D001250D60486076
:1091B0006048406888600E6160464A61C8606749DF
:1091C000637028050860F0BC002070470024D9E7D0
:1091D0000124D7E7F0BC04207047554A51680029A4
:1091E00009D01378984201D30720704728234343BE
:1091F000C958012901D008207047F0B4654B59685F
:109200000424C905C90D00291CD010390CD50D073F
:109210002D0F083DAD08AD00EB18DB698907C90EBD
:10922000CB401906890F09E08B085B4D9B005B1949
:109230001B688907C90ECB401906890F01291FD069
:1092400003291FD002219268C9008A1851789578A5
:109250000B46491C8D4200D10021167800258E4214
:1092600012D0182756687B43F3180DD002241C60D7
:10927000586051703949E00408602846F0BC7047D6
:109280000021E0E70121DEE72046F0BC704770B422
:10929000274A5068002815D03E4B5868C105C90DB3
:1092A000042000291FD010390FD50C07240F083CCB
:1092B000A408A400E318DB698907C90ECB4019068E
:1092C000890F0CE0082070BC70478B08324C9B0063
:1092D0001B191B688907C90ECB401906890F012984
:1092E0005CD003295CD002219268C9008A185178A9
:1092F00094780B46491C8C4200D10021157800243B
:109300008D42E0D0182655687343EB18DBD003205C
:109310001860001F58605170012010490005086056
:10932000204670BC70470000401101400011014010
:10933000F820002000150140536F757263655C6171
:1093400070705F636F6D6D6F6E5C6170705F74697C
:109350006D65722E630000001021002000E200E025
:1093600080E100E040130140001301400010014083
:1093700080E200E014E400E000E100E010E400E03E
:109380006170705F74696D65725F63726561746549
:109390000D0A000000ED00E000E400E00021A3E77A
:1093A0000121A1E7E5494968016000207047401AA2
:1093B0000002000A106000207047F0B5002095B050
:1093C000C043DF4903900A690A92C86807908B7806
:1093D000CC78A34211D05B1CDBB28B70022B01D185
:1093E00000238B701B06D74C9B0DE35809939A18EA
:1093F0001202120A0A61012201E000220992D049F8
:1094000010920F90497804914A1E0692D2B20592AA
:10941000CB4A002993680B9352680C9260D0144693
:109420000E930599CA000E9955182B7869789942C0
:109430004ED0182159436A685B1C5118AA78DBB2D8
:109440009A4200D100230A68022A02D0032A3CD1A2
:1094500031E04E682821714309198C46097E0029A4
:1094600033D002460146471C21D0B14207D00A46FC
:10947000282151430919496A4F1CF6D117E0002FE2
:1094800015D08A4203D1282670430019406A282645
:10949000714309198F687243496A121951624A1C53
:1094A00005D02822514309198E68F2198A600021DB
:1094B0006246117609E0411C07D000212822504362
:1094C00000190176406A421CF8D169789942B0D1FE
:1094D00005994A1ED2B205920029A2D19849C860C6
:1094E00097480F99C068884201D0012100E000210F
:1094F0000F911099002926D000240A9E099B401C38
:109500001FD08F4A2820D1680C9D48434019856898
:109510009D4202D9E91A816013E05B1B2C190025DA
:1095200085600576456AD5604269002A07D03719FB
:109530003F023F0AC7600261039A426203916D1CB9
:10954000DFD101200F90039810907D48069AC068E3
:1095500004990A90D2B20592002970D078490C9BE8
:10956000096908910B990E910E99D200551881E066
:109570001099491C06D0109A28215143C9184C6AE9
:1095800010941EE0297818224A436C68491CC9B21D
:10959000A4182970AA78914201D10021297062682B
:1095A000282151432668C918012E67D10E7E002E4E
:1095B00064D1A668CE60E6680E6126694E61646972
:1095C0000C62CE68089C604F341B2402240ABC4203
:1095D00003D20E69A4198C600AE0089CA41B240223
:1095E0000E69240AA64201D9341B00E000248C60D5
:1095F0000024CC600C6101240C76A41E4C6228214E
:109600005143C9188C46411C14D061468C682821EE
:109610004143C91889688C420ED828214143C91892
:1096200089680C1B28214143C9188C606146486237
:1096300010461FE010461DE00146049003E02AE0BA
:109640000491716AE41B4E1C0BD028264E43F61879
:10965000B768A742F4D328274F43FF18BF683F1BC2
:10966000B7606646B4606446616204992824614329
:10967000C9184A621099491C00D079E729786A789C
:109680009142FAD105994A1ED2B20592002900D022
:109690006AE72B49C8602A490A98CC68844202D1FB
:1096A0000F98002838D0079A2848294B651C35D0D8
:1096B00028256C430C9D6419A668204C64680F69CA
:1096C000521CE11B0D022D0AED1C002A0DD1586021
:1096D000204948600121204A400010601F4A106064
:1096E0001F4801602F20FAF779FDB54200D23546B8
:1096F000E81900021B49000A086010494968001B6C
:10970000091B0902090A0002000AC91C814203D987
:10971000012015494004086015B0F0BD0121134A2D
:109720004904116098600B4988600D490120486028
:109730002F20FAF753FD15B0F0BD000000150140D1
:10974000F820002010210020FFFF7F000000010012
:10975000401301400013014080E200E000E100E01E
:10976000001001404015014000E200E080E100E00F
:109770000A780270497841700220704770B504463B
:109780000D46084600F0AAF92080656070BD000013
:1097900070473A49C8613A48C1690129FCD10021A2
:1097A000C1617047354AC1B2D1613549CA69012AE0
:1097B000FCD10022CA617047314881680129FCD17F
:1097C000002181602D488069C0B27047F8B52C4DEA
:1097D0000446A8680F46012601280CD02046641EC6
:1097E000002807DB7D20C000FAF708FDA8680128E3
:1097F000F4D100E00026002C04DB0020A8601F4804
:10980000806938703046F8BD02780123002A0ED0F6
:1098100030B41A4C1A490025E261CA69012AFCD108
:10982000CD61C25C5B1C002AF6D130BC704770472A
:10983000F0B4144D01248E007619346000269F0088
:109840007F193E600D4FF9607B610499002909D0B2
:10985000810049190C60910049190E603A61B860A5
:109860000948C46209487862042038600848846066
:10987000046003488660F0BC70470000002500408B
:1098800000210040000700504025004000E0D701C3
:1098900000200040704700000FB4054910B503AA2E
:1098A000029801F0F5F810BC08BC04B0184700009D
:1098B0001821002070B50C460546012A05D02878ED
:1098C000800600D5EA69002302E0012305E05B1C65
:1098D000934202D2E05C0028F9D1A869E618C01AC8
:1098E000A861286AC01828622846C046C04604E01D
:1098F0006A682078A968641C9047B442F8D3284667
:10990000C046C04670BD0000F7B500257529106837
:10991000009914A611D0C046C046002802DA404281
:1099200011A608E0009909688A0701D50FA602E090
:10993000490704D50EA6012501E0C046C046009F98
:109940000024243704E001F0B7F830313955641CA5
:109950000028F8D12B4632462146009800F01EFE22
:10996000FEBD0000000000002D0000002B000000E4
:1099700020000000F3B50446002081B0206220469C
:10998000E168884700287AD0252802D06268A1685B
:1099900071E0E16820460025884706460020E06126
:1099A0000746A0612A2E0AD0304601F0A5FC002807
:1099B00027D0B8000019303E0090866119E0029867
:1099C000BA00121902C8916102902046E1688847E6
:1099D000012F064617D1E06900281FDA20208543B1
:1099E0001CE000980A2180694843009980193038AA
:1099F00088612046E1688847064601F07DFC002822
:109A0000EFD1012F0AD02E2E08D12046E1688847D9
:109A10000646202005437F1C022FC3DBA0690028D7
:109A200003DA4042A06101200543E80701D010207D
:109A30008543002E23D030464138192803D8012011
:109A4000C00205432036204625603146029A15465D
:109A5000FAF774FB00280BD0012806D0ED1DE808AA
:109A6000C000083002908AE709E02D1D029586E7C4
:109A700062683046A1689047206A401C7EE7206AF1
:109A8000FEBD034610B50B439B070FD1042A0DD32F
:109A900008C810C9121FA342F8D018BA21BA8842C8
:109AA00001D9012010BD0020C04310BD002A03D001
:109AB000D30703D0521C07E0002010BD03780C78B8
:109AC000401C491C1B1B07D103780C78401C491C07
:109AD0001B1B01D1921EF1D1184610BD30B5441C9C
